:03000000020800F3
:0C080000787FE4F6D8FD758110020847EF
:0309D20001100908
:1009B4001209C41209661209CDAF1012088C80FE08
:10092A00D3EF9400EE940040147D727C00ED1D70AC
:0D093A00011CED4C70F7EF1F70E61E80E30E
:01094700228D
:10094800D3EF9400EE940040147D0A7C00ED1D70F6
:0D095800011CED4C70F7EF1F70E61E80E3F0
:01096500226F
:100981007580FFC2A0D2A1C2A200D2A200E580332D
:010991002243
:1009920012098140FBC2A0C2A1D2A28F8000C2A2D2
:0109A2002232
:1009A30012098140FBD2A0C2A1D2A28F8000C2A2B1
:0109B3002221
:0509CD007F0102099208
:10096600C2A27F381209927F0E1209927F061209DF
:0B097600927F011209927F800209921B
:0C088C00E4FEEEC3940374809480501CC2
:10089800EF75F00A8485F00FE50F2430FD740C2EF7
:0908A800F8A605EF75F00A84FFC3
:1008B1000E80DA7E02EED394FF7480947F400D7433
:1008C1000C2EF8E6B4300576201E80E97F851209EA
:1008D10092AF0E1209A3AF0D1209A3AF0C1209A317
:0A08E1007F481209A37F7A0209A3E1
:0909C400D288D2A8D2AFC2B82239
:030003000208EB05
:1008EB00C0E0C0F0C083C082C0D075D000C000C0D3
:1008FB0001C002C003C004C005C006C0070510AF8D
:10090B001012088CD007D006D005D004D003D0022B
:0F091B00D001D000D0D0D082D083D0F0D0E03245
:10080C000209B4E493A3F8E493A34003F68001F245
:10081C0008DFF48029E493A3F85407240CC8C333ED
:10082C00C4540F4420C8834004F456800146F6DFBC
:10083C00E4800B01020408102040809009D2E47E71
:10084C00019360BCA3FF543F30E509541FFEE493B1
:10085C00A360010ECF54C025E060A840B8E493A378
:10086C00FAE493A3F8E493A3C8C582C8CAC583CAA3
:10087C00F0A3C8C582C8CAC583CADFE9DEE780BE5B
:0109D5000021
:00000001FF
