:03000000020800F3
:0C080000787FE4F6D8FD758108020847F7
:0309A70001087BC9
:10088C0012090012099B7F057E0012092F7F84122A
:10089C00096B7F057E0012092FE50875F06484242E
:1008AC0030FF12097C7F057E0012092FE50875F0D8
:1008BC000A8475F00A84E5F02430FF12097C7F0568
:1008CC007E0012092FE50875F00A84E5F02430FF4C
:1008DC0012097C7F057E0012092F7F4812097C7F4C
:1008EC00057E0012092F7F7A12097C7F057E00128B
:0408FC00092F8092AE
:10094D00D3EF9400EE940040147D727C00ED1D7089
:0D095D00011CED4C70F7EF1F70E61E80E3EB
:01096A00226A
:0709280012096B7F057E0040
:10092F00D3EF9400EE940040147D0A7C00ED1D700F
:0D093F00011CED4C70F7EF1F70E61E80E309
:01094C002288
:0E098D007580FFC2A0D2A1C2A200D2A2C322D6
:10096B0012098D40FBC2A0C2A1D2A28F8000C2A2ED
:01097B002259
:10097C0012098D40FBD2A0C2A1D2A28F8000C2A2CC
:01098C002248
:0C099B007F0112096B7F057E0002092F0E
:10090000C2A27F381209287F0E1209287F06120919
:100910006B1F7E0012092F7F011209287F801209A8
:080920006B7F057E0002092F28
:10080C0002088CE493A3F8E493A34003F68001F26E
:10081C0008DFF48029E493A3F85407240CC8C333ED
:10082C00C4540F4420C8834004F456800146F6DFBC
:10083C00E4800B01020408102040809009A7E47E9C
:10084C00019360BCA3FF543F30E509541FFEE493B1
:10085C00A360010ECF54C025E060A840B8E493A378
:10086C00FAE493A3F8E493A3C8C582C8CAC583CAA3
:10087C00F0A3C8C582C8CAC583CADFE9DEE780BE5B
:0109AA00004C
:00000001FF
