:03000000020800F3
:0C080000787FE4F6D8FD758108020847F7
:0309650001087B0B
:10088C001209121209607F8412093EE50875F064A2
:10089C00842430FF12094FE50875F00A8475F00ABC
:1008AC0084E5F02430FF12094F7F057E001208F416
:1008BC00E50875F00A84E5F02430FF12094F7F48F3
:0A08CC0012094F7F7A12094F80BC19
:1008D600D3EF9400EE940040147D727C00ED1D7001
:0D08E600011CED4C70F7EF1F70E61E80E363
:0108F30022E2
:1008F400D3EF9400EE940040147D0A7C00ED1D704B
:0D090400011CED4C70F7EF1F70E61E80E344
:0109110022C3
:10092D007580FFC2A0D2A1C2A200D2A200E5803381
:01093D002297
:10093E0012092D40FBC2A0C2A1D2A28F8000C2A27A
:01094E002286
:10094F0012092D40FBD2A0C2A1D2A28F8000C2A259
:01095F002275
:050960007F0102093EC9
:10091200C2A27F3812093E7F0E12093E7F061209DB
:0B0922003E7F0112093E7F8002093E6B
:10080C0002088CE493A3F8E493A34003F68001F26E
:10081C0008DFF48029E493A3F85407240CC8C333ED
:10082C00C4540F4420C8834004F456800146F6DFBC
:10083C00E4800B0102040810204080900965E47EDE
:10084C00019360BCA3FF543F30E509541FFEE493B1
:10085C00A360010ECF54C025E060A840B8E493A378
:10086C00FAE493A3F8E493A3C8C582C8CAC583CAA3
:10087C00F0A3C8C582C8CAC583CADFE9DEE780BE5B
:01096800008E
:00000001FF
