:0300000002049661
:0C049600787FE4F6D8FD7581190204DDC2
:0406C9000216000015
:10065C00751401851415120641120006AF1412050B
:09066C00221206BA12067580FE86
:10060500D3EF9400EE940040147D727C00ED1D70D4
:0D061500011CED4C70F7EF1F70E61E80E336
:0106220022B5
:10062300D3EF9400EE940040147D0A7C00ED1D701E
:0D063300011CED4C70F7EF1F70E61E80E318
:010640002297
:100687007580FFC2A4D2A5C2A600D2A600E580331A
:010697002240
:1006980012068740FBC2A4C2A5D2A68F8000C2A6BC
:0106A800222F
:1006A90012068740FBD2A4C2A5D2A68F8000C2A69B
:0106B900221E
:050006007F01020698D5
:10064100C2A67F381206987F0E1206987F06120600
:0B065100987F011206987F8002069837
:0C052200E4FEEEC3940374809480501C2F
:10052E00EF75F00A8485F013E5132430FD74102E58
:09053E00F8A605EF75F00A84FF30
:100547000E80DA7E02EED394FF7480947F400D74A0
:10055700102EF8E6B4300576201E80E97F85120656
:1005670098AF121206A9AF111206A9AF101206A969
:0A0577007F481206A97F7A0206A948
:0F06BA00D288D2A8D28AD2AAD2AFD2B8D2BA22CC
:0300030002058172
:10058100C0E0C0F0C083C082C0D075D000C000C040
:1005910001C002C003C004C005C006C00705148520
:1005A1001415AF14120522D007D006D005D004D0FF
:1005B10003D002D001D000D0D0D082D083D0F0D0EF
:0205C100E03226
:030013000205C320
:1005C300C0E0C0F0C083C082C0D075D000C000C0FE
:1005D30001C002C003C004C005C006C007151485CE
:1005E3001415AF14120522D007D006D005D004D0BD
:1005F30003D002D001D000D0D0D082D083D0F0D0AD
:02060300E032E3
:10001600191919191919191A1A1A1A1A1A1B1B1B3E
:100026001B1B1B1B1C1C1C1C1C1C1D1D1D1D1D1D08
:100036001D1E1E1E1E1E1E1F1F1F1F1F1F1F2020D0
:100046002020202021212121212121222222222299
:100056002222232323232323232424242424242465
:100066002525252525252525262626262626262731
:100076002727272727272728282828282828282900
:1000860029292929292929292A2A2A2A2A2A2A2AD2
:100096002B2B2B2B2B2B2B2B2B2B2C2C2C2C2C2CA4
:1000A6002C2C2C2C2D2D2D2D2D2D2D2D2D2D2D2E7D
:1000B6002E2E2E2E2E2E2E2E2E2E2E2E2F2F2F2F56
:1000C6002F2F2F2F2F2F2F2F2F2F30303030303034
:1000D6003030303030303030303030303031313117
:1000E60031313131313131313131313131313131FA
:1000F60031313131313131313131313131313131EA
:1001060031313131313131313131323131313131D8
:1001160031313131313131313131313131313131C9
:1001260031313131313131313131313131313131B9
:1001360031313131313131313030303030303030B1
:1001460030303030303030303030302F2F2F2F2FAE
:100156002F2F2F2F2F2F2F2F2F2E2E2E2E2E2E2EB0
:100166002E2E2E2E2E2E2D2D2D2D2D2D2D2D2D2DB3
:100176002D2C2C2C2C2C2C2C2C2C2C2B2B2B2B2BBD
:100186002B2B2B2B2B2A2A2A2A2A2A2A2A292929C7
:1001960029292929292928282828282828282727D5
:1001A60027272727272726262626262626252525E6
:1001B60025252525252424242424242423232323F8
:1001C600232323222222222222222121212121210C
:1001D600212020202020201F1F1F1F1F1F1F1E1E23
:1001E6001E1E1E1E1D1D1D1D1D1D1D1C1C1C1C1C3A
:1001F6001C1B1B1B1B1B1B1B1A1A1A1A1A1A191952
:100206001919191919181818181818171717171768
:100216001716161616161616151515151515141481
:100226001414141414131313131313121212121298
:100236001212111111111111101010101010100FAF
:100246000F0F0F0F0F0F0E0E0E0E0E0E0E0D0D0DC5
:100256000D0D0D0D0C0C0C0C0C0C0C0C0B0B0B0BD8
:100266000B0B0B0A0A0A0A0A0A0A0A0909090909EA
:1002760009090908080808080808080807070707F9
:100286000707070706060606060606060606050506
:100296000505050505050505040404040404040410
:1002A6000404040303030303030303030303030315
:1002B600020202020202020202020202020201011A
:1002C6000101010101010101010101010101010118
:1002D6000100000000000000000000000000000017
:1002E6000000000000000000000000000000000008
:1002F60000000000000000000000000000000000F8
:1003060000000000000000000000000000000000E7
:1003160000000000000000000000000000000000D7
:1003260000000000000000000000000001010101C3
:1003360001010101010101010101010101010102A6
:100346000202020202020202020202020203030384
:100356000303030303030303030304040404040461
:10036600040404040405050505050505050505063B
:100376000606060606060606060707070707070710
:1003860007080808080808080808090909090909E2
:1003960009090A0A0A0A0A0A0A0A0B0B0B0B0B0BB3
:1003A6000B0C0C0C0C0C0C0C0C0D0D0D0D0D0D0D81
:1003B6000E0E0E0E0E0E0E0F0F0F0F0F0F0F10104C
:1003C6001010101010111111111111121212121217
:1003D60012121313131313131414141414141415E0
:1003E60015151515151616161616161617171717A8
:0803F600171718181818181841
:0406CD00021800000F
:10067500758911758CFF758AECC2B9D2A9D2AFD232
:020685008C22C5
:03000B000203FEEF
:1003FE00C0E0C083C082C0D075D000C004C005C0AC
:10040E0006C007C28C758CFF758AECD28C0519E577
:10041E001970020518C39432E5189400403E751801
:10042E0000751900D290AF157E0074E89FFD74031D
:10043E009EFCC3E5179DE5169C500CEF2517F5178E
:10044E00EE3516F5168015C374E89517FF740395EF
:10045E0016FEC3E5159FF517E49EF51674162517BF
:10046E00F58274003516F583E493FFC3E5199FE515
:10047E001894004002C290D007D006D005D004D008
:08048E00D0D082D083D0E0320F
:1004A20002065CE493A3F8E493A34003F68001F20E
:1004B20008DFF48029E493A3F85407240CC8C3335B
:1004C200C4540F4420C8834004F456800146F6DF2A
:1004D200E4800B01020408102040809006C9E47EEB
:1004E200019360BCA3FF543F30E509541FFEE4931F
:1004F200A360010ECF54C025E060A840B8E493A3E6
:10050200FAE493A3F8E493A3C8C582C8CAC583CA10
:10051200F0A3C8C582C8CAC583CADFE9DEE780BEC8
:0106D1000028
:00000001FF
