:03000000020800F3
:0C080000787FE4F6D8FD758108020847F7
:0309A40001087BCC
:1009860012099612092F12099FAF081208CB80FE92
:1008F300D3EF9400EE940040147D727C00ED1D70E4
:0D090300011CED4C70F7EF1F70E61E80E345
:0109100022C4
:10091100D3EF9400EE940040147D0A7C00ED1D702D
:0D092100011CED4C70F7EF1F70E61E80E327
:01092E0022A6
:100964007580FFC2A0D2A1C2A200D2A200E580334A
:010974002260
:1009750012096440FBC2A0C2A1D2A28F8000C2A20C
:01098500224F
:09094A0075F00A84E5F02430FF89
:1009530012096440FBD2A0C2A1D2A28F8000C2A21E
:010963002271
:05099F007F0102097553
:10092F00C2A27F381209757F0E1209757F06120950
:0B093F00757F011209757F80020975A9
:1008CB00AE077F85120975EE75F064842430FF1234
:1008DB000953EE75F00A8412094AEE12094A7F4851
:0808EB001209537F7A02095340
:09099600D288D2A8D2AFC2B82267
:0300030002088C64
:10088C00C0E0C0F0C083C082C0D075D000C000C032
:10089C0001C002C003C004C005C006C0070508AFF4
:1008AC00081208CBD007D006D005D004D003D00254
:0F08BC00D001D000D0D0D082D083D0F0D0E032A5
:10080C00020986E493A3F8E493A34003F68001F273
:10081C0008DFF48029E493A3F85407240CC8C333ED
:10082C00C4540F4420C8834004F456800146F6DFBC
:10083C00E4800B01020408102040809009A4E47E9F
:10084C00019360BCA3FF543F30E509541FFEE493B1
:10085C00A360010ECF54C025E060A840B8E493A378
:10086C00FAE493A3F8E493A3C8C582C8CAC583CAA3
:10087C00F0A3C8C582C8CAC583CADFE9DEE780BE5B
:0109A700004F
:00000001FF
