:030000000208BB38
:0C08BB00787FE4F6D8FD75810702084D37
:10084D001208001208C77F8012088B7F057E0012E8
:10085D00082F7F4112089C7F057E0012082F80E62D
:10086D00D3EF9400EE940040147D727C00ED1D706A
:0D087D00011CED4C70F7EF1F70E61E80E3CC
:01088A00224B
:0708280012088B7F057E0022
:10082F00D3EF9400EE940040147D0A7C00ED1D7010
:0D083F00011CED4C70F7EF1F70E61E80E30A
:01084C002289
:0E08AD007580FFC2A0D2A1C2A200D2A2C322B7
:10088B001208AD40FBC2A0C2A1D2A28F8000C2A2AF
:01089B00223A
:10089C001208AD40FBD2A0C2A1D2A28F8000C2A28E
:0108AC002229
:0C08C7007F0112088B7F057E0002082FC5
:10080000C2A27F381208287F0E1208287F0612081D
:100810008B1F7E0012082F7F011208287F8012088C
:080820008B7F057E0002082F0A
:00000001FF
