:030000000207B044
:0C07B000787FE4F6D8FD7581350207F76C
:090006000129000425000000009E
:10047B00E4F508F509F50AF50BF50FF50EF50DF595
:10048B000CF513F512F511F510F5937594FFF59521
:10049B007596FF759101759208758EC043A2047510
:1004AB009D01758DDC758BDCF58CF58AD2A9F5D8A1
:1004BB00F5E9F5F975D90875FA8075EA8075DA42B0
:1004CB0075FB8075EB80F5DBF5F2F5F3D2DEF50805
:1004DB00F509AC08AD09E41202B97BDA7A0F794958
:1004EB00784012010EE4FBFAF978431202178F0FD2
:1004FB008E0E8D0D8C0C1206A0E4FBFA7980783FE2
:10050B0012001DE4FBFA79FE784212010E1202F280
:10051B0074002509F58274003508F583EFF00509A1
:10052B00E50970020508C3E508940140A5E4F50848
:10053B00F509D3E5099480E508940040047FFF801A
:10054B00027F0074002509F58274013508F583EFED
:10055B00F00509E50970020508B400D6E508B401F9
:10056B00D1E4F508F509C374FF9509FF740025095B
:10057B00F58274023508F583EFF00509E509700281
:10058B000508B400E1E508B401DCE4F508F509D38E
:10059B00E509947FE5089400E509400525E0FF8017
:1005AB000F2401FFE50834FFFE7CFF7DFE1203D90B
:1005BB0074002509F58274033508F583EFF00509FE
:1005CB00E50970020508B400C6E508B401C1752A37
:1005DB000AAF2AE4FCFDFE7B447A3A7903F8120356
:1005EB00EB8F248E238D228C21D288D2A8D28AD253
:1005FB00AAD2B8D2BA1209AB120A1FAF2A12092813
:10060B00D2AFE5282524F528E5273523F527E52660
:10061B003522F526E5253521F525AF28AE27AD2664
:10062B00FC78181204488F2B74002FF582E43400E9
:07063B00F583E0F5FA80CB26
:0300030002083CB4
:10083C00C0E0C0F0C083C082C0D075D000C000C082
:10084C0001C002C003C004C005C006C0077F64120B
:10085C0009D420B23D052AE52A75F00A84E5F0702A
:10086C000674F6252AF52AD3E52A946E74809480B2
:10087C004003752A01AF2AE4FCFDFE7B447A3A79E9
:10088C0003F81203EB8F248E238D228C21AF2A12B6
:10089C000928D007D006D005D004D003D002D0014F
:0D08AC00D000D0D0D082D083D0F0D0E03288
:030013000208B927
:1008B900C0E0C0F0C083C082C0D075D000C000C005
:1008C90001C002C003C004C005C006C0077F64128E
:1008D90009D420B32F740A252AF52AD39464748085
:1008E90094804003752A01AF2AE4FCFDFE7B447A1B
:1008F9003A7903F81203EB8F248E238D228C21AFD2
:100909002A120928D007D006D005D004D003D00276
:0F091900D001D000D0D0D082D083D0F0D0E03247
:03001000DFFE22EE
:0709CD007F381209E97F05E4
:1009D400AE07AF061EEF600C7FF51200107FF51214
:0509E400001080EE226E
:100A0F007580FFC2A4D2A5C2A600D2A6E58033226C
:1009E900AD077F051209D4C2A4C2A5D2A68D800085
:0309F900C2A62271
:1009FC00AD077F051209D4D2A4C2A5D2A68D800062
:030A0C00C2A6225D
:0A0A1F007F011209E97F050209D4E6
:10098700AE07ED7005EE24808003EE24C0FF120948
:10099700E91203C0FF600C1209FC740129F9E43A5B
:0409A700FA80EE22C2
:1009AB001209CD1209CD1209CD7F381209E97F0842
:1009BB001209E97F011209E97F061209CF7F0C02A8
:0209CB0009E938
:0C092800E4FEEEC3940374809480501C25
:10093400EF75F00A8485F01FE51F2430FD741C2E2A
:09094400F8A605EF75F00A84FF26
:10094D000E80DA7E02EED394FF7480947F400D7496
:10095D001C2EF8E6B4300576201E80E97F8512093D
:10096D00E9AF1E1209FCAF1D1209FCAF1C1209FCE8
:0A097D007F481209FC7F7A0209FC92
:1000160002035EE86480F8E933E83360110460F0B7
:10002600ED33EC337009E8FCE9FDEAFEEBFF220450
:1000360060DED3EB9FEA9EE99DE8C2E78CF0C2F74B
:1000460095F0400CE8CCF8E9CDF9EACEFAEBCFFB17
:1000560012032985D0F05804700320D5B3E8047044
:10006600075002B2D502036892D5EC0460F7E4CCDF
:10007600C0E0C398F8603B94186008400DD0E0FBE0
:10008600020340E4FBFAC9FC8028E830E406E4C930
:10009600FBE4CAFCE830E305E4C9CACBFCE8540734
:1000A6006010F8C3E913F9EA13FAEB13FBEC13FC3F
:1000B600D8F130F52FC3E49CFCEF9BFFEE9AFEEDE2
:1000C60099FDD0E0FBEF4E4D4C701222DB0302038C
:1000D60065EC2CFCEF33FFEE33FEED33FDED30E740
:1000E600EB020340EF2BFFEE3AFEED39FDD0E0FBCD
:1000F60050130BBB0003020368ED13FDEE13FEEF76
:0801060013FFEC13FC0203409F
:10010E00EC4D6011E8497017ED33EC3304600DE4EB
:10011E00FCFFFEFD22E933E8330470F802035E12A1
:10012E00032958046009E4CC2481500628500902A2
:10013E000368284003020365C0E0EB4A7044B980AF
:10014E0006D0E0FB020354EF4E701CBD8008EBFF9F
:10015E00EAFEE9FD80EBE98DF0A4FEE5F00201F781
:10016E00E9CDF9EAFEEBFFEF89F0A4FCE5F0CE89CC
:10017E00F0A42EFFE435F0CD89F0A42DFEE435F089
:10018E008067EF4E7005BD80D780C3EF8BF0A4ACB7
:10019E00F0EE8BF0A42CFCE435F0F8EF8AF0A42CF2
:1001AE00E5F038FCE433CB8DF0A42CFCE5F03BF805
:1001BE00EE8AF0A42CFCE5F038F8E433CF89F0A4F5
:1001CE002CFCE5F038CF3400CE89F0A42FFFE5F0FB
:1001DE003EFEE433C98DF0A42EFEE5F039CD8AF053
:1001EE00A42FFFE5F03EFEE43DFD33D0E0FB5007CB
:1001FE000BBB000F020368EC2CFCEF33FFEE33FE5B
:06020E00ED33FD02034088
:10021400020368EC5D046005E85904700302035EA0
:10022400120329580460F6EC4860F2EC7004FDFEF9
:10023400FF22C860DB2481C85009C39860025006BD
:100244000203659850CAF582E9294B4A7005AB82CE
:1002540002035475F0007C1A7880C3EF9BEE9AED8C
:1002640099400DC3EF9BFFEE9AFEED99FDE842F035
:10027400DC23ACF0D0E0FFD0E0FED0E0FDAB822088
:10028400E7101BEB60BAEC2CFCEF33FFEE33FEED12
:1002940033FD020340E803F830E705C0F075F000D1
:1002A400EF2FFFEE33FEED33FD40B830E7C280AAF6
:1002B40075F020800E75F010800575F0087D007EC5
:1002C400007F003392D530D50312043AEC3340104A
:1002D400EF33FFEE33FEED33FDEC33FCD5F0ED22CE
:0E02E400E5F0247EA2D513CC92E7CDCEFF220A
:1002F200EDD2E7CD33EC3392D524814006E4FFFE04
:10030200FDFC22FCE4CFCECDCC24E0501174FF8062
:10031200EDC3CC13CCCD13CDCE13CECF13CF0470FF
:07032200F030D5DE02043AC1
:100642003A70FA83BCAAE9E43E81E0F8BF9DE9E68C
:100652003F80000039283C1ABB9969663DA335E307
:10066200BF255DE73FC90FDB418DDBCCC44936EEC8
:1006720045C9913FC5B0F83D3F800000C317F5342E
:10068200452FFA73C60AFDDD12073104A2E192007A
:100692001420E01590064274041203738026120798
:1006A2003130E102B20020E0EB8C148D158E168FF2
:1006B200179006567404120373A814A915AA16AB50
:1006C2001712010EED4C6007300004EC6480FC222E
:1006D200120731C0E08C148D158E168F1790067A92
:1006E2007403120373A814A915AA16AB1712010EEC
:1006F200ECC514FCEDC515FDEEC516FEEFC517FFE2
:1007020090066A7403120373D082A814A915AA165C
:10071200AB17E58230E007120217B20080A6EFCBDA
:10072200FFEECAFEEDC9FDECC8FC1202178095ED82
:1007320033EC547FCC33920024605007D0E0D0E0F9
:1007420002035E7B837AF97922783E12010EEDF97B
:1007520033ECF83324815011EFFBEEFA1202F2125D
:1007620002B4ECB2E7FC12001DED33EC33602F242F
:1007720003F8C313FCED92E7FDE82481E4501FEC7B
:10078200F8EDF9EEFAEFFB1202F2EF04C2E0FCF52B
:10079200821202BEECB2E7FC12001DE58203FAED02
:0E07A20033EC3360071413FCED92E7FDEA22FE
:10032900E9D2E7C933E833F892D5EDD2E7CD33EC1A
:0703390033FC5002B2D52293
:10034000EC30E7100FBF000C0EBE00080DBD00041E
:100350000BEB6014A2D5EB13FCED92E7FD2274FFCA
:10036000FCFDFEFF22E480F8A2D574FF13FC7D8023
:03037000E480EF37
:10037300C0E0EFFBEEFAEDF9ECF812010ED0E0F578
:10038300F0EFFBEEFAEDF9ECF812045BA3A3A3A3E1
:10039300E8C0E0E9C0E0EAC0E0EBC0E0C0F0120171
:1003A3000E12046BA3A3A3A312001DD0F0D0E0FB95
:0D03B300D0E0FAD0E0F9D0E0F8D5F0D42287
:1007BC0002047BE493A3F8E493A34003F68001F2D4
:1007CC0008DFF48029E493A3F85407240CC8C3333E
:1007DC00C4540F4420C8834004F456800146F6DF0D
:1007EC00E4800B0102040810204080900006E47E97
:1007FC00019360BCA3FF543F30E509541FFEE49302
:10080C00A360010ECF54C025E060A840B8E493A3C8
:10081C00FAE493A3F8E493A3C8C582C8CAC583CAF3
:10082C00F0A3C8C582C8CAC583CADFE9DEE780BEAB
:01000F0000F0
:1003C000BB010689828A83E0225002E722BBFE023B
:0903D000E32289828A83E493226E
:1003D900EF8DF0A4A8F0CF8CF0A428CE8DF0A42E38
:0203E900FE22F2
:1003EB00E88FF0A4CC8BF0A42CFCE98EF0A42CFCB1
:1003FB008AF0EDA42CFCEA8EF0A4CDA8F08BF0A42F
:10040B002DCC3825F0FDE98FF0A42CCD35F0FCEB8D
:10041B008EF0A4FEA9F0EB8FF0A4CFC5F02ECD3952
:0F042B00FEE43CFCEAA42DCE35F0FDE43CFC22BF
:0E043A00C3E49FFFE49EFEE49DFDE49CFC22D3
:10044800E8600FECC313FCED13FDEE13FEEF13FF92
:03045800D8F122B6
:10045B00E493FC740193FD740293FE740393FF22E7
:10046B00E493F8740193F9740293FA740393FB22E7
:00000001FF
