:0300000002077282
:0C077200787FE4F6D8FD75814D0207B9D0
:09001600014100043D000000005E
:10047900E4F521F522F523F524F528F527F526F5E8
:1004890025F52CF52BF52AF529F5937594FFF595A6
:100499007596FF759101759208758EC043A2047512
:1004A9009D01758DDC758BDC758921759850F587F3
:1004B900D28ED2ACF58CF58AD2A9F5D8F5E9F5F941
:1004C90075D90875FA8075EA8075DA4275FB807509
:1004D900EB8075DB42F5F2F5F3D2DEF521F522ACBE
:1004E90021AD22E41202C97BDA7A0F7949784012E8
:1004F900011EE4FBFAF978431202278F288E278D13
:10050900268C25120662E4FBFA7980783F12002DC9
:10051900E4FBFA79FE784212011E120302740025E7
:1005290022F58274003521F583EFF00522E522706A
:10053900020521C3E521940140A5E4F521F522D363
:10054900E5229480E521940040047FFF80027F002A
:1005590074002522F58274013521F583EFF0052217
:10056900E52270020521B400D6E521B401D1E4F5F4
:1005790021F52274002522F58274023521F583E5DF
:1005890022F00522E52270020521B400E6E521B436
:1005990001E1754264AF42E4FCFDFE7B447A3A799D
:1005A90003F81203E98F3C8E3B8D3A8C39D288D2FD
:1005B900A8D28AD2AAD2B8D2BA120992120A06AF1E
:1005C900421207FED2AFE540253CF540E53F353BF9
:1005D900F53FE53E353AF53EE53D3539F53DAF4068
:1005E900AE3FAD3EFC78181204468F4374002FF5D8
:0B05F90082E43401F583E0F5FA80CBCA
:0300230002094887
:10094800C0E0C0D075D010309812C29874442541C8
:10095800F8A6990541758C00D28C8005309902C2A1
:0609680099D0D0D0E0326E
:03000B0002090BDC
:10090B00C0E0C0F0C083C082C0D075D018C28C7557
:10091B004100E545FE7C00E42544FFEC3EFEE4FD92
:10092B007B447A3A7903F81203E98F3C8E3B8D3A7C
:0D093B008C39D0D0D082D083D0F0D0E03203
:0300030002085D93
:10085D00C0E0C0F0C083C082C0D075D000C000C061
:10086D0001C002C003C004C005C006C0070542AFE9
:10087D0042E4FCFDFE7B447A3A7903F81203E98FDA
:10088D003C8E3B8D3A8C39AF421207FED007D00615
:10089D00D005D004D003D002D001D000D0D0D0826A
:0708AD00D083D0F0D0E0324F
:030013000208B42C
:1008B400C0E0C0F0C083C082C0D075D000C000C00A
:1008C40001C002C003C004C005C006C0071542AF82
:1008D40042E4FCFDFE7B447A3A7903F81203E98F83
:1008E4003C8E3B8D3A8C39AF421207FED007D006BE
:1008F400D005D004D003D002D001D000D0D0D08213
:07090400D083D0F0D0E032F7
:03000600DFFE22F8
:0709B4007F381209D07F0516
:1009BB00AE07AF061EEF600C7FF51200067FF51237
:0509CB00000680EE2291
:1009F6007580FFC2A4D2A5C2A600D2A6E580332286
:1009D000AD077F051209BBC2A4C2A5D2A68D8000B7
:0309E000C2A6228A
:1009E300AD077F051209BBD2A4C2A5D2A68D800094
:0309F300C2A62277
:0A0A06007F011209D07F050209BB31
:10096E00AE07ED7005EE24808003EE24C0FF120961
:10097E00D01203D0FF600C1209E3740129F9E43A96
:04098E00FA80EE22DB
:100992001209B41209B41209B47F381209D07F08BF
:1009A2001209D07F011209D07F061209B67F0C020C
:0209B20009D06A
:0C07FE00E4FEEEC3940374809480501C51
:10080A00EF75F00A8485F038E5382430FD74352E0A
:09081A00F8A605EF75F00A84FF51
:100823000E80DA7E02EED394FF7480947F400D74C1
:10083300352EF8E6B4300576201E80E97F8512094F
:10084300D0AF371209E3AF361209E3AF351209E32C
:0A0853007F481209E37F7A0209E3EF
:1000260002036EE86480F8E933E83360110460F097
:10003600ED33EC337009E8FCE9FDEAFEEBFF220440
:1000460060DED3EB9FEA9EE99DE8C2E78CF0C2F73B
:1000560095F0400CE8CCF8E9CDF9EACEFAEBCFFB07
:1000660012033985D0F05804700320D5B3E8047024
:10007600075002B2D502037892D5EC0460F7E4CCBF
:10008600C0E0C398F8603B94186008400DD0E0FBD0
:10009600020350E4FBFAC9FC8028E830E406E4C910
:1000A600FBE4CAFCE830E305E4C9CACBFCE8540724
:1000B6006010F8C3E913F9EA13FAEB13FBEC13FC2F
:1000C600D8F130F52FC3E49CFCEF9BFFEE9AFEEDD2
:1000D60099FDD0E0FBEF4E4D4C701222DB0302037C
:1000E60075EC2CFCEF33FFEE33FEED33FDED30E720
:1000F600EB020350EF2BFFEE3AFEED39FDD0E0FBAD
:1001060050130BBB0003020378ED13FDEE13FEEF55
:0801160013FFEC13FC0203507F
:10011E00EC4D6011E8497017ED33EC3304600DE4DB
:10012E00FCFFFEFD22E933E8330470F802036E1281
:10013E00033958046009E4CC248150062850090282
:10014E000378284003020375C0E0EB4A7044B9807F
:10015E0006D0E0FB020364EF4E701CBD8008EBFF7F
:10016E00EAFEE9FD80EBE98DF0A4FEE5F002020760
:10017E00E9CDF9EAFEEBFFEF89F0A4FCE5F0CE89BC
:10018E00F0A42EFFE435F0CD89F0A42DFEE435F079
:10019E008067EF4E7005BD80D780C3EF8BF0A4ACA7
:1001AE00F0EE8BF0A42CFCE435F0F8EF8AF0A42CE2
:1001BE00E5F038FCE433CB8DF0A42CFCE5F03BF8F5
:1001CE00EE8AF0A42CFCE5F038F8E433CF89F0A4E5
:1001DE002CFCE5F038CF3400CE89F0A42FFFE5F0EB
:1001EE003EFEE433C98DF0A42EFEE5F039CD8AF043
:1001FE00A42FFFE5F03EFEE43DFD33D0E0FB5007BB
:10020E000BBB000F020378EC2CFCEF33FFEE33FE3A
:06021E00ED33FD02035068
:10022400020378EC5D046005E85904700302036E70
:10023400120339580460F6EC4860F2EC7004FDFED9
:10024400FF22C860DB2481C85009C39860025006AD
:100254000203759850CAF582E9294B4A7005AB82AE
:1002640002036475F0007C1A7880C3EF9BEE9AED6C
:1002740099400DC3EF9BFFEE9AFEED99FDE842F025
:10028400DC23ACF0D0E0FFD0E0FED0E0FDAB822078
:10029400E7101BEB60BAEC2CFCEF33FFEE33FEED02
:1002A40033FD020350E803F830E705C0F075F000B1
:1002B400EF2FFFEE33FEED33FD40B830E7C280AAE6
:1002C40075F020800E75F010800575F0087D007EB5
:1002D400007F003392D530D503120438EC3340103C
:1002E400EF33FFEE33FEED33FDEC33FCD5F0ED22BE
:0E02F400E5F0247EA2D513CC92E7CDCEFF22FA
:10030200EDD2E7CD33EC3392D524814006E4FFFEF3
:10031200FDFC22FCE4CFCECDCC24E0501174FF8052
:10032200EDC3CC13CCCD13CDCE13CECF13CF0470EF
:07033200F030D5DE020438B3
:100604003A70FA83BCAAE9E43E81E0F8BF9DE9E6CA
:100614003F80000039283C1ABB9969663DA335E345
:10062400BF255DE73FC90FDB418DDBCCC44936EE06
:1006340045C9913FC5B0F83D3F800000C317F5346C
:10064400452FFA73C60AFDDD1206F304A2E19200F7
:100654001420E01590060474041203838026120605
:10066400F330E102B20020E0EB8C2D8D2E8E2F8F23
:10067400309006187404120383A82DA92EAA2FAB58
:100684003012011EED4C6007300004EC6480FC2243
:100694001206F3C0E08C2D8D2E8E2F8F3090063CE9
:1006A4007403120383A82DA92EAA2FAB3012011EA6
:1006B400ECC52DFCEDC52EFDEEC52FFEEFC530FFBC
:1006C40090062C7403120383D082A82DA92EAA2F7E
:1006D400AB30E58230E007120227B20080A6EFCBF0
:1006E400FFEECAFEEDC9FDECC8FC1202278095EDB1
:1006F40033EC547FCC33920024605007D0E0D0E038
:1007040002036E7B837AF97922783E12011EEDF999
:1007140033ECF83324815011EFFBEEFA120302128A
:1007240002C4ECB2E7FC12002DED33EC33602F244D
:1007340003F8C313FCED92E7FDE82481E4501FECB9
:10074400F8EDF9EEFAEFFB120302EF04C2E0FCF558
:10075400821202CEECB2E7FC12002DE58203FAED20
:0E07640033EC3360071413FCED92E7FDEA223C
:10033900E9D2E7C933E833F892D5EDD2E7CD33EC0A
:0703490033FC5002B2D52283
:10035000EC30E7100FBF000C0EBE00080DBD00040E
:100360000BEB6014A2D5EB13FCED92E7FD2274FFBA
:10037000FCFDFEFF22E480F8A2D574FF13FC7D8013
:03038000E480EF27
:10038300C0E0EFFBEEFAEDF9ECF812011ED0E0F558
:10039300F0EFFBEEFAEDF9ECF8120459A3A3A3A3D3
:1003A300E8C0E0E9C0E0EAC0E0EBC0E0C0F0120161
:1003B3001E120469A3A3A3A312002DD0F0D0E0FB67
:0D03C300D0E0FAD0E0F9D0E0F8D5F0D42277
:10077E00020479E493A3F8E493A34003F68001F214
:10078E0008DFF48029E493A3F85407240CC8C3337C
:10079E00C4540F4420C8834004F456800146F6DF4B
:1007AE00E4800B0102040810204080900016E47EC5
:1007BE00019360BCA3FF543F30E509541FFEE49340
:1007CE00A360010ECF54C025E060A840B8E493A307
:1007DE00FAE493A3F8E493A3C8C582C8CAC583CA32
:1007EE00F0A3C8C582C8CAC583CADFE9DEE780BEEA
:01001F0000E0
:1003D000BB010689828A83E0225002E722BBFE022B
:0903E000E32289828A83E493225E
:1003E900E88FF0A4CC8BF0A42CFCE98EF0A42CFCB3
:1003F9008AF0EDA42CFCEA8EF0A4CDA8F08BF0A431
:100409002DCC3825F0FDE98FF0A42CCD35F0FCEB8F
:100419008EF0A4FEA9F0EB8FF0A4CFC5F02ECD3954
:0F042900FEE43CFCEAA42DCE35F0FDE43CFC22C1
:0E043800C3E49FFFE49EFEE49DFDE49CFC22D5
:10044600E8600FECC313FCED13FDEE13FEEF13FF94
:03045600D8F122B8
:10045900E493FC740193FD740293FE740393FF22E9
:10046900E493F8740193F9740293FA740393FB22E9
:00000001FF
